{
  "_format": "hh-sol-artifact-1",
  "contractName": "Unin",
  "sourceName": "contracts/Unin.sol",
  "abi": [
    {
      "inputs": [],
      "stateMutability": "nonpayable",
      "type": "constructor"
    },
    {
      "anonymous": false,
      "inputs": [
        {
          "indexed": true,
          "internalType": "address",
          "name": "owner",
          "type": "address"
        },
        {
          "indexed": true,
          "internalType": "address",
          "name": "approved",
          "type": "address"
        },
        {
          "indexed": true,
          "internalType": "uint256",
          "name": "tokenId",
          "type": "uint256"
        }
      ],
      "name": "Approval",
      "type": "event"
    },
    {
      "anonymous": false,
      "inputs": [
        {
          "indexed": true,
          "internalType": "address",
          "name": "owner",
          "type": "address"
        },
        {
          "indexed": true,
          "internalType": "address",
          "name": "operator",
          "type": "address"
        },
        {
          "indexed": false,
          "internalType": "bool",
          "name": "approved",
          "type": "bool"
        }
      ],
      "name": "ApprovalForAll",
      "type": "event"
    },
    {
      "anonymous": false,
      "inputs": [
        {
          "indexed": false,
          "internalType": "address",
          "name": "addr",
          "type": "address"
        },
        {
          "indexed": false,
          "internalType": "uint256",
          "name": "tokenId",
          "type": "uint256"
        }
      ],
      "name": "MintEvent",
      "type": "event"
    },
    {
      "anonymous": false,
      "inputs": [
        {
          "indexed": true,
          "internalType": "address",
          "name": "previousOwner",
          "type": "address"
        },
        {
          "indexed": true,
          "internalType": "address",
          "name": "newOwner",
          "type": "address"
        }
      ],
      "name": "OwnershipTransferred",
      "type": "event"
    },
    {
      "anonymous": false,
      "inputs": [
        {
          "indexed": true,
          "internalType": "address",
          "name": "from",
          "type": "address"
        },
        {
          "indexed": true,
          "internalType": "address",
          "name": "to",
          "type": "address"
        },
        {
          "indexed": true,
          "internalType": "uint256",
          "name": "tokenId",
          "type": "uint256"
        }
      ],
      "name": "Transfer",
      "type": "event"
    },
    {
      "inputs": [
        {
          "internalType": "address",
          "name": "to",
          "type": "address"
        },
        {
          "internalType": "uint256",
          "name": "tokenId",
          "type": "uint256"
        }
      ],
      "name": "approve",
      "outputs": [],
      "stateMutability": "nonpayable",
      "type": "function"
    },
    {
      "inputs": [
        {
          "internalType": "address",
          "name": "owner",
          "type": "address"
        }
      ],
      "name": "balanceOf",
      "outputs": [
        {
          "internalType": "uint256",
          "name": "",
          "type": "uint256"
        }
      ],
      "stateMutability": "view",
      "type": "function"
    },
    {
      "inputs": [
        {
          "internalType": "uint256",
          "name": "tokenId",
          "type": "uint256"
        }
      ],
      "name": "burn",
      "outputs": [],
      "stateMutability": "nonpayable",
      "type": "function"
    },
    {
      "inputs": [],
      "name": "currentPrice",
      "outputs": [
        {
          "internalType": "uint256",
          "name": "",
          "type": "uint256"
        }
      ],
      "stateMutability": "view",
      "type": "function"
    },
    {
      "inputs": [
        {
          "internalType": "uint256",
          "name": "tokenId",
          "type": "uint256"
        }
      ],
      "name": "getApproved",
      "outputs": [
        {
          "internalType": "address",
          "name": "",
          "type": "address"
        }
      ],
      "stateMutability": "view",
      "type": "function"
    },
    {
      "inputs": [],
      "name": "getPrice",
      "outputs": [
        {
          "internalType": "uint256",
          "name": "",
          "type": "uint256"
        }
      ],
      "stateMutability": "view",
      "type": "function"
    },
    {
      "inputs": [
        {
          "internalType": "address",
          "name": "owner",
          "type": "address"
        },
        {
          "internalType": "address",
          "name": "operator",
          "type": "address"
        }
      ],
      "name": "isApprovedForAll",
      "outputs": [
        {
          "internalType": "bool",
          "name": "",
          "type": "bool"
        }
      ],
      "stateMutability": "view",
      "type": "function"
    },
    {
      "inputs": [],
      "name": "maxSupply",
      "outputs": [
        {
          "internalType": "uint256",
          "name": "",
          "type": "uint256"
        }
      ],
      "stateMutability": "view",
      "type": "function"
    },
    {
      "inputs": [
        {
          "internalType": "address",
          "name": "addr",
          "type": "address"
        },
        {
          "internalType": "uint256[]",
          "name": "attrs",
          "type": "uint256[]"
        }
      ],
      "name": "mint",
      "outputs": [],
      "stateMutability": "payable",
      "type": "function"
    },
    {
      "inputs": [],
      "name": "name",
      "outputs": [
        {
          "internalType": "string",
          "name": "",
          "type": "string"
        }
      ],
      "stateMutability": "view",
      "type": "function"
    },
    {
      "inputs": [],
      "name": "owner",
      "outputs": [
        {
          "internalType": "address",
          "name": "",
          "type": "address"
        }
      ],
      "stateMutability": "view",
      "type": "function"
    },
    {
      "inputs": [
        {
          "internalType": "uint256",
          "name": "tokenId",
          "type": "uint256"
        }
      ],
      "name": "ownerOf",
      "outputs": [
        {
          "internalType": "address",
          "name": "",
          "type": "address"
        }
      ],
      "stateMutability": "view",
      "type": "function"
    },
    {
      "inputs": [],
      "name": "renounceOwnership",
      "outputs": [],
      "stateMutability": "nonpayable",
      "type": "function"
    },
    {
      "inputs": [
        {
          "internalType": "address",
          "name": "from",
          "type": "address"
        },
        {
          "internalType": "address",
          "name": "to",
          "type": "address"
        },
        {
          "internalType": "uint256",
          "name": "tokenId",
          "type": "uint256"
        }
      ],
      "name": "safeTransferFrom",
      "outputs": [],
      "stateMutability": "nonpayable",
      "type": "function"
    },
    {
      "inputs": [
        {
          "internalType": "address",
          "name": "from",
          "type": "address"
        },
        {
          "internalType": "address",
          "name": "to",
          "type": "address"
        },
        {
          "internalType": "uint256",
          "name": "tokenId",
          "type": "uint256"
        },
        {
          "internalType": "bytes",
          "name": "data",
          "type": "bytes"
        }
      ],
      "name": "safeTransferFrom",
      "outputs": [],
      "stateMutability": "nonpayable",
      "type": "function"
    },
    {
      "inputs": [
        {
          "internalType": "address",
          "name": "operator",
          "type": "address"
        },
        {
          "internalType": "bool",
          "name": "approved",
          "type": "bool"
        }
      ],
      "name": "setApprovalForAll",
      "outputs": [],
      "stateMutability": "nonpayable",
      "type": "function"
    },
    {
      "inputs": [
        {
          "internalType": "bytes4",
          "name": "interfaceId",
          "type": "bytes4"
        }
      ],
      "name": "supportsInterface",
      "outputs": [
        {
          "internalType": "bool",
          "name": "",
          "type": "bool"
        }
      ],
      "stateMutability": "view",
      "type": "function"
    },
    {
      "inputs": [],
      "name": "symbol",
      "outputs": [
        {
          "internalType": "string",
          "name": "",
          "type": "string"
        }
      ],
      "stateMutability": "view",
      "type": "function"
    },
    {
      "inputs": [
        {
          "internalType": "uint256",
          "name": "index",
          "type": "uint256"
        }
      ],
      "name": "tokenByIndex",
      "outputs": [
        {
          "internalType": "uint256",
          "name": "",
          "type": "uint256"
        }
      ],
      "stateMutability": "view",
      "type": "function"
    },
    {
      "inputs": [
        {
          "internalType": "address",
          "name": "owner",
          "type": "address"
        },
        {
          "internalType": "uint256",
          "name": "index",
          "type": "uint256"
        }
      ],
      "name": "tokenOfOwnerByIndex",
      "outputs": [
        {
          "internalType": "uint256",
          "name": "",
          "type": "uint256"
        }
      ],
      "stateMutability": "view",
      "type": "function"
    },
    {
      "inputs": [
        {
          "internalType": "uint256",
          "name": "token",
          "type": "uint256"
        }
      ],
      "name": "tokenURI",
      "outputs": [
        {
          "internalType": "string",
          "name": "",
          "type": "string"
        }
      ],
      "stateMutability": "view",
      "type": "function"
    },
    {
      "inputs": [],
      "name": "totalSupply",
      "outputs": [
        {
          "internalType": "uint256",
          "name": "",
          "type": "uint256"
        }
      ],
      "stateMutability": "view",
      "type": "function"
    },
    {
      "inputs": [
        {
          "internalType": "address payable",
          "name": "to",
          "type": "address"
        },
        {
          "internalType": "uint256",
          "name": "amount",
          "type": "uint256"
        }
      ],
      "name": "transfer",
      "outputs": [],
      "stateMutability": "payable",
      "type": "function"
    },
    {
      "inputs": [
        {
          "internalType": "address",
          "name": "from",
          "type": "address"
        },
        {
          "internalType": "address",
          "name": "to",
          "type": "address"
        },
        {
          "internalType": "uint256",
          "name": "tokenId",
          "type": "uint256"
        }
      ],
      "name": "transferFrom",
      "outputs": [],
      "stateMutability": "nonpayable",
      "type": "function"
    },
    {
      "inputs": [
        {
          "internalType": "address",
          "name": "newOwner",
          "type": "address"
        }
      ],
      "name": "transferOwnership",
      "outputs": [],
      "stateMutability": "nonpayable",
      "type": "function"
    },
    {
      "inputs": [
        {
          "internalType": "uint256",
          "name": "newMaxSupply",
          "type": "uint256"
        }
      ],
      "name": "updateMaxSupply",
      "outputs": [],
      "stateMutability": "nonpayable",
      "type": "function"
    },
    {
      "inputs": [
        {
          "internalType": "uint256",
          "name": "newPrice",
          "type": "uint256"
        }
      ],
      "name": "updatePrice",
      "outputs": [],
      "stateMutability": "nonpayable",
      "type": "function"
    }
  ],
  "bytecode": "0x60806040526000600d556706f05b59d3b20000600e55612710600f553480156200002857600080fd5b506040518060400160405280600481526020017f556e696e000000000000000000000000000000000000000000000000000000008152506040518060400160405280600481526020017f554e494e000000000000000000000000000000000000000000000000000000008152508160009080519060200190620000ad929190620001bd565b508060019080519060200190620000c6929190620001bd565b505050620000e9620000dd620000ef60201b60201c565b620000f760201b60201c565b620002d2565b600033905090565b6000600b60009054906101000a900473ffffffffffffffffffffffffffffffffffffffff16905081600b60006101000a81548173ffffffffffffffffffffffffffffffffffffffff021916908373ffffffffffffffffffffffffffffffffffffffff1602179055508173ffffffffffffffffffffffffffffffffffffffff168173ffffffffffffffffffffffffffffffffffffffff167f8be0079c531659141344cd1fd0a4f28419497f9722a3daafe3b4186f6b6457e060405160405180910390a35050565b828054620001cb906200029c565b90600052602060002090601f016020900481019282620001ef57600085556200023b565b82601f106200020a57805160ff19168380011785556200023b565b828001600101855582156200023b579182015b828111156200023a5782518255916020019190600101906200021d565b5b5090506200024a91906200024e565b5090565b5b80821115620002695760008160009055506001016200024f565b5090565b7f4e487b7100000000000000000000000000000000000000000000000000000000600052602260045260246000fd5b60006002820490506001821680620002b557607f821691505b60208210811415620002cc57620002cb6200026d565b5b50919050565b613c7180620002e26000396000f3fe60806040526004361061019c5760003560e01c80638d6cc56d116100ec578063b88d4fde1161008a578063de836ebd11610064578063de836ebd146105cb578063e985e9c5146105e7578063f103b43314610624578063f2fde38b1461064d5761019c565b8063b88d4fde1461053a578063c87b56dd14610563578063d5abeb01146105a05761019c565b806398d5fdca116100c657806398d5fdca1461049f5780639d1b464a146104ca578063a22cb465146104f5578063a9059cbb1461051e5761019c565b80638d6cc56d146104205780638da5cb5b1461044957806395d89b41146104745761019c565b80632f745c59116101595780634f6ccce7116101335780634f6ccce7146103525780636352211e1461038f57806370a08231146103cc578063715018a6146104095761019c565b80632f745c59146102c357806342842e0e1461030057806342966c68146103295761019c565b806301ffc9a7146101a157806306fdde03146101de578063081812fc14610209578063095ea7b31461024657806318160ddd1461026f57806323b872dd1461029a575b600080fd5b3480156101ad57600080fd5b506101c860048036038101906101c3919061289f565b610676565b6040516101d591906128e7565b60405180910390f35b3480156101ea57600080fd5b506101f3610688565b604051610200919061299b565b60405180910390f35b34801561021557600080fd5b50610230600480360381019061022b91906129f3565b61071a565b60405161023d9190612a61565b60405180910390f35b34801561025257600080fd5b5061026d60048036038101906102689190612aa8565b610760565b005b34801561027b57600080fd5b50610284610878565b6040516102919190612af7565b60405180910390f35b3480156102a657600080fd5b506102c160048036038101906102bc9190612b12565b610885565b005b3480156102cf57600080fd5b506102ea60048036038101906102e59190612aa8565b6108e5565b6040516102f79190612af7565b60405180910390f35b34801561030c57600080fd5b5061032760048036038101906103229190612b12565b61098a565b005b34801561033557600080fd5b50610350600480360381019061034b91906129f3565b6109aa565b005b34801561035e57600080fd5b50610379600480360381019061037491906129f3565b610a06565b6040516103869190612af7565b60405180910390f35b34801561039b57600080fd5b506103b660048036038101906103b191906129f3565b610a77565b6040516103c39190612a61565b60405180910390f35b3480156103d857600080fd5b506103f360048036038101906103ee9190612b65565b610b29565b6040516104009190612af7565b60405180910390f35b34801561041557600080fd5b5061041e610be1565b005b34801561042c57600080fd5b50610447600480360381019061044291906129f3565b610bf5565b005b34801561045557600080fd5b5061045e610c07565b60405161046b9190612a61565b60405180910390f35b34801561048057600080fd5b50610489610c31565b604051610496919061299b565b60405180910390f35b3480156104ab57600080fd5b506104b4610cc3565b6040516104c19190612af7565b60405180910390f35b3480156104d657600080fd5b506104df610ccd565b6040516104ec9190612af7565b60405180910390f35b34801561050157600080fd5b5061051c60048036038101906105179190612bbe565b610cd3565b005b61053860048036038101906105339190612c3c565b610ce9565b005b34801561054657600080fd5b50610561600480360381019061055c9190612db1565b610d9a565b005b34801561056f57600080fd5b5061058a600480360381019061058591906129f3565b610dfc565b604051610597919061299b565b60405180910390f35b3480156105ac57600080fd5b506105b5610e0e565b6040516105c29190612af7565b60405180910390f35b6105e560048036038101906105e09190612e94565b610e14565b005b3480156105f357600080fd5b5061060e60048036038101906106099190612ef4565b610f97565b60405161061b91906128e7565b60405180910390f35b34801561063057600080fd5b5061064b600480360381019061064691906129f3565b61102b565b005b34801561065957600080fd5b50610674600480360381019061066f9190612b65565b61103d565b005b6000610681826110c1565b9050919050565b60606000805461069790612f63565b80601f01602080910402602001604051908101604052809291908181526020018280546106c390612f63565b80156107105780601f106106e557610100808354040283529160200191610710565b820191906000526020600020905b8154815290600101906020018083116106f357829003601f168201915b5050505050905090565b60006107258261113b565b6004600083815260200190815260200160002060009054906101000a900473ffffffffffffffffffffffffffffffffffffffff169050919050565b600061076b82610a77565b90508073ffffffffffffffffffffffffffffffffffffffff168373ffffffffffffffffffffffffffffffffffffffff1614156107dc576040517f08c379a00000000000000000000000000000000000000000000000000000000081526004016107d390613007565b60405180910390fd5b8073ffffffffffffffffffffffffffffffffffffffff166107fb611186565b73ffffffffffffffffffffffffffffffffffffffff16148061082a575061082981610824611186565b610f97565b5b610869576040517f08c379a000000000000000000000000000000000000000000000000000000000815260040161086090613099565b60405180910390fd5b610873838361118e565b505050565b6000600880549050905090565b610896610890611186565b82611247565b6108d5576040517f08c379a00000000000000000000000000000000000000000000000000000000081526004016108cc9061312b565b60405180910390fd5b6108e08383836112dc565b505050565b60006108f083610b29565b8210610931576040517f08c379a0000000000000000000000000000000000000000000000000000000008152600401610928906131bd565b60405180910390fd5b600660008473ffffffffffffffffffffffffffffffffffffffff1673ffffffffffffffffffffffffffffffffffffffff168152602001908152602001600020600083815260200190815260200160002054905092915050565b6109a583838360405180602001604052806000815250610d9a565b505050565b6109bb6109b5611186565b82611247565b6109fa576040517f08c379a00000000000000000000000000000000000000000000000000000000081526004016109f19061312b565b60405180910390fd5b610a0381611543565b50565b6000610a10610878565b8210610a51576040517f08c379a0000000000000000000000000000000000000000000000000000000008152600401610a489061324f565b60405180910390fd5b60088281548110610a6557610a6461326f565b5b90600052602060002001549050919050565b6000806002600084815260200190815260200160002060009054906101000a900473ffffffffffffffffffffffffffffffffffffffff169050600073ffffffffffffffffffffffffffffffffffffffff168173ffffffffffffffffffffffffffffffffffffffff161415610b20576040517f08c379a0000000000000000000000000000000000000000000000000000000008152600401610b17906132ea565b60405180910390fd5b80915050919050565b60008073ffffffffffffffffffffffffffffffffffffffff168273ffffffffffffffffffffffffffffffffffffffff161415610b9a576040517f08c379a0000000000000000000000000000000000000000000000000000000008152600401610b919061337c565b60405180910390fd5b600360008373ffffffffffffffffffffffffffffffffffffffff1673ffffffffffffffffffffffffffffffffffffffff168152602001908152602001600020549050919050565b610be961154f565b610bf360006115cd565b565b610bfd61154f565b80600e8190555050565b6000600b60009054906101000a900473ffffffffffffffffffffffffffffffffffffffff16905090565b606060018054610c4090612f63565b80601f0160208091040260200160405190810160405280929190818152602001828054610c6c90612f63565b8015610cb95780601f10610c8e57610100808354040283529160200191610cb9565b820191906000526020600020905b815481529060010190602001808311610c9c57829003601f168201915b5050505050905090565b6000600e54905090565b600e5481565b610ce5610cde611186565b8383611693565b5050565b610cf161154f565b80600d541015610d36576040517f08c379a0000000000000000000000000000000000000000000000000000000008152600401610d2d906133e8565b60405180910390fd5b80600d6000828254610d489190613437565b925050819055508173ffffffffffffffffffffffffffffffffffffffff166108fc829081150290604051600060405180830381858888f19350505050158015610d95573d6000803e3d6000fd5b505050565b610dab610da5611186565b83611247565b610dea576040517f08c379a0000000000000000000000000000000000000000000000000000000008152600401610de19061312b565b60405180910390fd5b610df684848484611800565b50505050565b6060610e078261185c565b9050919050565b600f5481565b600f54610e1f610878565b10610e2957600080fd5b600e54341015610e6e576040517f08c379a0000000000000000000000000000000000000000000000000000000008152600401610e65906133e8565b60405180910390fd5b34600d6000828254610e80919061346b565b925050819055506000604051806020016040528060008152509050610ebe83836000818110610eb257610eb161326f565b5b9050602002013561196f565b90506000600190505b83839050811015610f2a5781610ef5858584818110610ee957610ee861326f565b5b9050602002013561196f565b604051602001610f06929190613549565b60405160208183030381529060405291508080610f2290613578565b915050610ec7565b506000610f37600c611ad0565b9050610f438582611ade565b610f4d8183611afc565b610f57600c611b70565b7f3fffaa5804a26fcec0d70b1d0fb0a2d0031df3a5f9c8af2127c2f4360e97b4638582604051610f889291906135c1565b60405180910390a15050505050565b6000600560008473ffffffffffffffffffffffffffffffffffffffff1673ffffffffffffffffffffffffffffffffffffffff16815260200190815260200160002060008373ffffffffffffffffffffffffffffffffffffffff1673ffffffffffffffffffffffffffffffffffffffff16815260200190815260200160002060009054906101000a900460ff16905092915050565b61103361154f565b80600f8190555050565b61104561154f565b600073ffffffffffffffffffffffffffffffffffffffff168173ffffffffffffffffffffffffffffffffffffffff1614156110b5576040517f08c379a00000000000000000000000000000000000000000000000000000000081526004016110ac9061365c565b60405180910390fd5b6110be816115cd565b50565b60007f780e9d63000000000000000000000000000000000000000000000000000000007bffffffffffffffffffffffffffffffffffffffffffffffffffffffff1916827bffffffffffffffffffffffffffffffffffffffffffffffffffffffff19161480611134575061113382611b86565b5b9050919050565b61114481611c68565b611183576040517f08c379a000000000000000000000000000000000000000000000000000000000815260040161117a906132ea565b60405180910390fd5b50565b600033905090565b816004600083815260200190815260200160002060006101000a81548173ffffffffffffffffffffffffffffffffffffffff021916908373ffffffffffffffffffffffffffffffffffffffff160217905550808273ffffffffffffffffffffffffffffffffffffffff1661120183610a77565b73ffffffffffffffffffffffffffffffffffffffff167f8c5be1e5ebec7d5bd14f71427d1e84f3dd0314c0f7b2291e5b200ac8c7c3b92560405160405180910390a45050565b60008061125383610a77565b90508073ffffffffffffffffffffffffffffffffffffffff168473ffffffffffffffffffffffffffffffffffffffff16148061129557506112948185610f97565b5b806112d357508373ffffffffffffffffffffffffffffffffffffffff166112bb8461071a565b73ffffffffffffffffffffffffffffffffffffffff16145b91505092915050565b8273ffffffffffffffffffffffffffffffffffffffff166112fc82610a77565b73ffffffffffffffffffffffffffffffffffffffff1614611352576040517f08c379a0000000000000000000000000000000000000000000000000000000008152600401611349906136ee565b60405180910390fd5b600073ffffffffffffffffffffffffffffffffffffffff168273ffffffffffffffffffffffffffffffffffffffff1614156113c2576040517f08c379a00000000000000000000000000000000000000000000000000000000081526004016113b990613780565b60405180910390fd5b6113cd838383611cd4565b6113d860008261118e565b6001600360008573ffffffffffffffffffffffffffffffffffffffff1673ffffffffffffffffffffffffffffffffffffffff16815260200190815260200160002060008282546114289190613437565b925050819055506001600360008473ffffffffffffffffffffffffffffffffffffffff1673ffffffffffffffffffffffffffffffffffffffff168152602001908152602001600020600082825461147f919061346b565b92505081905550816002600083815260200190815260200160002060006101000a81548173ffffffffffffffffffffffffffffffffffffffff021916908373ffffffffffffffffffffffffffffffffffffffff160217905550808273ffffffffffffffffffffffffffffffffffffffff168473ffffffffffffffffffffffffffffffffffffffff167fddf252ad1be2c89b69c2b068fc378daa952ba7f163c4a11628f55a4df523b3ef60405160405180910390a461153e838383611ce4565b505050565b61154c81611ce9565b50565b611557611186565b73ffffffffffffffffffffffffffffffffffffffff16611575610c07565b73ffffffffffffffffffffffffffffffffffffffff16146115cb576040517f08c379a00000000000000000000000000000000000000000000000000000000081526004016115c2906137ec565b60405180910390fd5b565b6000600b60009054906101000a900473ffffffffffffffffffffffffffffffffffffffff16905081600b60006101000a81548173ffffffffffffffffffffffffffffffffffffffff021916908373ffffffffffffffffffffffffffffffffffffffff1602179055508173ffffffffffffffffffffffffffffffffffffffff168173ffffffffffffffffffffffffffffffffffffffff167f8be0079c531659141344cd1fd0a4f28419497f9722a3daafe3b4186f6b6457e060405160405180910390a35050565b8173ffffffffffffffffffffffffffffffffffffffff168373ffffffffffffffffffffffffffffffffffffffff161415611702576040517f08c379a00000000000000000000000000000000000000000000000000000000081526004016116f990613858565b60405180910390fd5b80600560008573ffffffffffffffffffffffffffffffffffffffff1673ffffffffffffffffffffffffffffffffffffffff16815260200190815260200160002060008473ffffffffffffffffffffffffffffffffffffffff1673ffffffffffffffffffffffffffffffffffffffff16815260200190815260200160002060006101000a81548160ff0219169083151502179055508173ffffffffffffffffffffffffffffffffffffffff168373ffffffffffffffffffffffffffffffffffffffff167f17307eab39ab6107e8899845ad3d59bd9653f200f220920489ca2b5937696c31836040516117f391906128e7565b60405180910390a3505050565b61180b8484846112dc565b61181784848484611d3c565b611856576040517f08c379a000000000000000000000000000000000000000000000000000000000815260040161184d906138ea565b60405180910390fd5b50505050565b60606118678261113b565b6000600a6000848152602001908152602001600020805461188790612f63565b80601f01602080910402602001604051908101604052809291908181526020018280546118b390612f63565b80156119005780601f106118d557610100808354040283529160200191611900565b820191906000526020600020905b8154815290600101906020018083116118e357829003601f168201915b505050505090506000611911611ed3565b905060008151141561192757819250505061196a565b60008251111561195c57808260405160200161194492919061390a565b6040516020818303038152906040529250505061196a565b61196584611eea565b925050505b919050565b606060008214156119b7576040518060400160405280600181526020017f30000000000000000000000000000000000000000000000000000000000000008152509050611acb565b600082905060005b600082146119e95780806119d290613578565b915050600a826119e2919061395d565b91506119bf565b60008167ffffffffffffffff811115611a0557611a04612c86565b5b6040519080825280601f01601f191660200182016040528015611a375781602001600182028036833780820191505090505b5090505b60008514611ac457600182611a509190613437565b9150600a85611a5f919061398e565b6030611a6b919061346b565b60f81b818381518110611a8157611a8061326f565b5b60200101907effffffffffffffffffffffffffffffffffffffffffffffffffffffffffffff1916908160001a905350600a85611abd919061395d565b9450611a3b565b8093505050505b919050565b600081600001549050919050565b611af8828260405180602001604052806000815250611f52565b5050565b611b0582611c68565b611b44576040517f08c379a0000000000000000000000000000000000000000000000000000000008152600401611b3b90613a31565b60405180910390fd5b80600a60008481526020019081526020016000209080519060200190611b6b929190612750565b505050565b6001816000016000828254019250508190555050565b60007f80ac58cd000000000000000000000000000000000000000000000000000000007bffffffffffffffffffffffffffffffffffffffffffffffffffffffff1916827bffffffffffffffffffffffffffffffffffffffffffffffffffffffff19161480611c5157507f5b5e139f000000000000000000000000000000000000000000000000000000007bffffffffffffffffffffffffffffffffffffffffffffffffffffffff1916827bffffffffffffffffffffffffffffffffffffffffffffffffffffffff1916145b80611c615750611c6082611fad565b5b9050919050565b60008073ffffffffffffffffffffffffffffffffffffffff166002600084815260200190815260200160002060009054906101000a900473ffffffffffffffffffffffffffffffffffffffff1673ffffffffffffffffffffffffffffffffffffffff1614159050919050565b611cdf838383612017565b505050565b505050565b611cf28161212b565b6000600a60008381526020019081526020016000208054611d1290612f63565b905014611d3957600a60008281526020019081526020016000206000611d3891906127d6565b5b50565b6000611d5d8473ffffffffffffffffffffffffffffffffffffffff16612248565b15611ec6578373ffffffffffffffffffffffffffffffffffffffff1663150b7a02611d86611186565b8786866040518563ffffffff1660e01b8152600401611da89493929190613aa6565b602060405180830381600087803b158015611dc257600080fd5b505af1925050508015611df357506040513d601f19601f82011682018060405250810190611df09190613b07565b60015b611e76573d8060008114611e23576040519150601f19603f3d011682016040523d82523d6000602084013e611e28565b606091505b50600081511415611e6e576040517f08c379a0000000000000000000000000000000000000000000000000000000008152600401611e65906138ea565b60405180910390fd5b805181602001fd5b63150b7a0260e01b7bffffffffffffffffffffffffffffffffffffffffffffffffffffffff1916817bffffffffffffffffffffffffffffffffffffffffffffffffffffffff191614915050611ecb565b600190505b949350505050565b606060405180602001604052806000815250905090565b6060611ef58261113b565b6000611eff611ed3565b90506000815111611f1f5760405180602001604052806000815250611f4a565b80611f298461196f565b604051602001611f3a92919061390a565b6040516020818303038152906040525b915050919050565b611f5c838361226b565b611f696000848484611d3c565b611fa8576040517f08c379a0000000000000000000000000000000000000000000000000000000008152600401611f9f906138ea565b60405180910390fd5b505050565b60007f01ffc9a7000000000000000000000000000000000000000000000000000000007bffffffffffffffffffffffffffffffffffffffffffffffffffffffff1916827bffffffffffffffffffffffffffffffffffffffffffffffffffffffff1916149050919050565b612022838383612445565b600073ffffffffffffffffffffffffffffffffffffffff168373ffffffffffffffffffffffffffffffffffffffff161415612065576120608161244a565b6120a4565b8173ffffffffffffffffffffffffffffffffffffffff168373ffffffffffffffffffffffffffffffffffffffff16146120a3576120a28382612493565b5b5b600073ffffffffffffffffffffffffffffffffffffffff168273ffffffffffffffffffffffffffffffffffffffff1614156120e7576120e281612600565b612126565b8273ffffffffffffffffffffffffffffffffffffffff168273ffffffffffffffffffffffffffffffffffffffff16146121255761212482826126d1565b5b5b505050565b600061213682610a77565b905061214481600084611cd4565b61214f60008361118e565b6001600360008373ffffffffffffffffffffffffffffffffffffffff1673ffffffffffffffffffffffffffffffffffffffff168152602001908152602001600020600082825461219f9190613437565b925050819055506002600083815260200190815260200160002060006101000a81549073ffffffffffffffffffffffffffffffffffffffff021916905581600073ffffffffffffffffffffffffffffffffffffffff168273ffffffffffffffffffffffffffffffffffffffff167fddf252ad1be2c89b69c2b068fc378daa952ba7f163c4a11628f55a4df523b3ef60405160405180910390a461224481600084611ce4565b5050565b6000808273ffffffffffffffffffffffffffffffffffffffff163b119050919050565b600073ffffffffffffffffffffffffffffffffffffffff168273ffffffffffffffffffffffffffffffffffffffff1614156122db576040517f08c379a00000000000000000000000000000000000000000000000000000000081526004016122d290613b80565b60405180910390fd5b6122e481611c68565b15612324576040517f08c379a000000000000000000000000000000000000000000000000000000000815260040161231b90613bec565b60405180910390fd5b61233060008383611cd4565b6001600360008473ffffffffffffffffffffffffffffffffffffffff1673ffffffffffffffffffffffffffffffffffffffff1681526020019081526020016000206000828254612380919061346b565b92505081905550816002600083815260200190815260200160002060006101000a81548173ffffffffffffffffffffffffffffffffffffffff021916908373ffffffffffffffffffffffffffffffffffffffff160217905550808273ffffffffffffffffffffffffffffffffffffffff16600073ffffffffffffffffffffffffffffffffffffffff167fddf252ad1be2c89b69c2b068fc378daa952ba7f163c4a11628f55a4df523b3ef60405160405180910390a461244160008383611ce4565b5050565b505050565b6008805490506009600083815260200190815260200160002081905550600881908060018154018082558091505060019003906000526020600020016000909190919091505550565b600060016124a084610b29565b6124aa9190613437565b905060006007600084815260200190815260200160002054905081811461258f576000600660008673ffffffffffffffffffffffffffffffffffffffff1673ffffffffffffffffffffffffffffffffffffffff168152602001908152602001600020600084815260200190815260200160002054905080600660008773ffffffffffffffffffffffffffffffffffffffff1673ffffffffffffffffffffffffffffffffffffffff168152602001908152602001600020600084815260200190815260200160002081905550816007600083815260200190815260200160002081905550505b6007600084815260200190815260200160002060009055600660008573ffffffffffffffffffffffffffffffffffffffff1673ffffffffffffffffffffffffffffffffffffffff16815260200190815260200160002060008381526020019081526020016000206000905550505050565b600060016008805490506126149190613437565b90506000600960008481526020019081526020016000205490506000600883815481106126445761264361326f565b5b9060005260206000200154905080600883815481106126665761266561326f565b5b9060005260206000200181905550816009600083815260200190815260200160002081905550600960008581526020019081526020016000206000905560088054806126b5576126b4613c0c565b5b6001900381819060005260206000200160009055905550505050565b60006126dc83610b29565b905081600660008573ffffffffffffffffffffffffffffffffffffffff1673ffffffffffffffffffffffffffffffffffffffff168152602001908152602001600020600083815260200190815260200160002081905550806007600084815260200190815260200160002081905550505050565b82805461275c90612f63565b90600052602060002090601f01602090048101928261277e57600085556127c5565b82601f1061279757805160ff19168380011785556127c5565b828001600101855582156127c5579182015b828111156127c45782518255916020019190600101906127a9565b5b5090506127d29190612816565b5090565b5080546127e290612f63565b6000825580601f106127f45750612813565b601f0160209004906000526020600020908101906128129190612816565b5b50565b5b8082111561282f576000816000905550600101612817565b5090565b6000604051905090565b600080fd5b600080fd5b60007fffffffff0000000000000000000000000000000000000000000000000000000082169050919050565b61287c81612847565b811461288757600080fd5b50565b60008135905061289981612873565b92915050565b6000602082840312156128b5576128b461283d565b5b60006128c38482850161288a565b91505092915050565b60008115159050919050565b6128e1816128cc565b82525050565b60006020820190506128fc60008301846128d8565b92915050565b600081519050919050565b600082825260208201905092915050565b60005b8381101561293c578082015181840152602081019050612921565b8381111561294b576000848401525b50505050565b6000601f19601f8301169050919050565b600061296d82612902565b612977818561290d565b935061298781856020860161291e565b61299081612951565b840191505092915050565b600060208201905081810360008301526129b58184612962565b905092915050565b6000819050919050565b6129d0816129bd565b81146129db57600080fd5b50565b6000813590506129ed816129c7565b92915050565b600060208284031215612a0957612a0861283d565b5b6000612a17848285016129de565b91505092915050565b600073ffffffffffffffffffffffffffffffffffffffff82169050919050565b6000612a4b82612a20565b9050919050565b612a5b81612a40565b82525050565b6000602082019050612a766000830184612a52565b92915050565b612a8581612a40565b8114612a9057600080fd5b50565b600081359050612aa281612a7c565b92915050565b60008060408385031215612abf57612abe61283d565b5b6000612acd85828601612a93565b9250506020612ade858286016129de565b9150509250929050565b612af1816129bd565b82525050565b6000602082019050612b0c6000830184612ae8565b92915050565b600080600060608486031215612b2b57612b2a61283d565b5b6000612b3986828701612a93565b9350506020612b4a86828701612a93565b9250506040612b5b868287016129de565b9150509250925092565b600060208284031215612b7b57612b7a61283d565b5b6000612b8984828501612a93565b91505092915050565b612b9b816128cc565b8114612ba657600080fd5b50565b600081359050612bb881612b92565b92915050565b60008060408385031215612bd557612bd461283d565b5b6000612be385828601612a93565b9250506020612bf485828601612ba9565b9150509250929050565b6000612c0982612a20565b9050919050565b612c1981612bfe565b8114612c2457600080fd5b50565b600081359050612c3681612c10565b92915050565b60008060408385031215612c5357612c5261283d565b5b6000612c6185828601612c27565b9250506020612c72858286016129de565b9150509250929050565b600080fd5b600080fd5b7f4e487b7100000000000000000000000000000000000000000000000000000000600052604160045260246000fd5b612cbe82612951565b810181811067ffffffffffffffff82111715612cdd57612cdc612c86565b5b80604052505050565b6000612cf0612833565b9050612cfc8282612cb5565b919050565b600067ffffffffffffffff821115612d1c57612d1b612c86565b5b612d2582612951565b9050602081019050919050565b82818337600083830152505050565b6000612d54612d4f84612d01565b612ce6565b905082815260208101848484011115612d7057612d6f612c81565b5b612d7b848285612d32565b509392505050565b600082601f830112612d9857612d97612c7c565b5b8135612da8848260208601612d41565b91505092915050565b60008060008060808587031215612dcb57612dca61283d565b5b6000612dd987828801612a93565b9450506020612dea87828801612a93565b9350506040612dfb878288016129de565b925050606085013567ffffffffffffffff811115612e1c57612e1b612842565b5b612e2887828801612d83565b91505092959194509250565b600080fd5b600080fd5b60008083601f840112612e5457612e53612c7c565b5b8235905067ffffffffffffffff811115612e7157612e70612e34565b5b602083019150836020820283011115612e8d57612e8c612e39565b5b9250929050565b600080600060408486031215612ead57612eac61283d565b5b6000612ebb86828701612a93565b935050602084013567ffffffffffffffff811115612edc57612edb612842565b5b612ee886828701612e3e565b92509250509250925092565b60008060408385031215612f0b57612f0a61283d565b5b6000612f1985828601612a93565b9250506020612f2a85828601612a93565b9150509250929050565b7f4e487b7100000000000000000000000000000000000000000000000000000000600052602260045260246000fd5b60006002820490506001821680612f7b57607f821691505b60208210811415612f8f57612f8e612f34565b5b50919050565b7f4552433732313a20617070726f76616c20746f2063757272656e74206f776e6560008201527f7200000000000000000000000000000000000000000000000000000000000000602082015250565b6000612ff160218361290d565b9150612ffc82612f95565b604082019050919050565b6000602082019050818103600083015261302081612fe4565b9050919050565b7f4552433732313a20617070726f76652063616c6c6572206973206e6f7420746f60008201527f6b656e206f776e6572206e6f7220617070726f76656420666f7220616c6c0000602082015250565b6000613083603e8361290d565b915061308e82613027565b604082019050919050565b600060208201905081810360008301526130b281613076565b9050919050565b7f4552433732313a2063616c6c6572206973206e6f7420746f6b656e206f776e6560008201527f72206e6f7220617070726f766564000000000000000000000000000000000000602082015250565b6000613115602e8361290d565b9150613120826130b9565b604082019050919050565b6000602082019050818103600083015261314481613108565b9050919050565b7f455243373231456e756d657261626c653a206f776e657220696e646578206f7560008201527f74206f6620626f756e6473000000000000000000000000000000000000000000602082015250565b60006131a7602b8361290d565b91506131b28261314b565b604082019050919050565b600060208201905081810360008301526131d68161319a565b9050919050565b7f455243373231456e756d657261626c653a20676c6f62616c20696e646578206f60008201527f7574206f6620626f756e64730000000000000000000000000000000000000000602082015250565b6000613239602c8361290d565b9150613244826131dd565b604082019050919050565b600060208201905081810360008301526132688161322c565b9050919050565b7f4e487b7100000000000000000000000000000000000000000000000000000000600052603260045260246000fd5b7f4552433732313a20696e76616c696420746f6b656e2049440000000000000000600082015250565b60006132d460188361290d565b91506132df8261329e565b602082019050919050565b60006020820190508181036000830152613303816132c7565b9050919050565b7f4552433732313a2061646472657373207a65726f206973206e6f74206120766160008201527f6c6964206f776e65720000000000000000000000000000000000000000000000602082015250565b600061336660298361290d565b91506133718261330a565b604082019050919050565b6000602082019050818103600083015261339581613359565b9050919050565b7f496e73756666696369656e742066756e64730000000000000000000000000000600082015250565b60006133d260128361290d565b91506133dd8261339c565b602082019050919050565b60006020820190508181036000830152613401816133c5565b9050919050565b7f4e487b7100000000000000000000000000000000000000000000000000000000600052601160045260246000fd5b6000613442826129bd565b915061344d836129bd565b9250828210156134605761345f613408565b5b828203905092915050565b6000613476826129bd565b9150613481836129bd565b9250827fffffffffffffffffffffffffffffffffffffffffffffffffffffffffffffffff038211156134b6576134b5613408565b5b828201905092915050565b600081905092915050565b60006134d782612902565b6134e181856134c1565b93506134f181856020860161291e565b80840191505092915050565b7f2c00000000000000000000000000000000000000000000000000000000000000600082015250565b60006135336001836134c1565b915061353e826134fd565b600182019050919050565b600061355582856134cc565b915061356082613526565b915061356c82846134cc565b91508190509392505050565b6000613583826129bd565b91507fffffffffffffffffffffffffffffffffffffffffffffffffffffffffffffffff8214156135b6576135b5613408565b5b600182019050919050565b60006040820190506135d66000830185612a52565b6135e36020830184612ae8565b9392505050565b7f4f776e61626c653a206e6577206f776e657220697320746865207a65726f206160008201527f6464726573730000000000000000000000000000000000000000000000000000602082015250565b600061364660268361290d565b9150613651826135ea565b604082019050919050565b6000602082019050818103600083015261367581613639565b9050919050565b7f4552433732313a207472616e736665722066726f6d20696e636f72726563742060008201527f6f776e6572000000000000000000000000000000000000000000000000000000602082015250565b60006136d860258361290d565b91506136e38261367c565b604082019050919050565b60006020820190508181036000830152613707816136cb565b9050919050565b7f4552433732313a207472616e7366657220746f20746865207a65726f2061646460008201527f7265737300000000000000000000000000000000000000000000000000000000602082015250565b600061376a60248361290d565b91506137758261370e565b604082019050919050565b600060208201905081810360008301526137998161375d565b9050919050565b7f4f776e61626c653a2063616c6c6572206973206e6f7420746865206f776e6572600082015250565b60006137d660208361290d565b91506137e1826137a0565b602082019050919050565b60006020820190508181036000830152613805816137c9565b9050919050565b7f4552433732313a20617070726f766520746f2063616c6c657200000000000000600082015250565b600061384260198361290d565b915061384d8261380c565b602082019050919050565b6000602082019050818103600083015261387181613835565b9050919050565b7f4552433732313a207472616e7366657220746f206e6f6e20455243373231526560008201527f63656976657220696d706c656d656e7465720000000000000000000000000000602082015250565b60006138d460328361290d565b91506138df82613878565b604082019050919050565b60006020820190508181036000830152613903816138c7565b9050919050565b600061391682856134cc565b915061392282846134cc565b91508190509392505050565b7f4e487b7100000000000000000000000000000000000000000000000000000000600052601260045260246000fd5b6000613968826129bd565b9150613973836129bd565b9250826139835761398261392e565b5b828204905092915050565b6000613999826129bd565b91506139a4836129bd565b9250826139b4576139b361392e565b5b828206905092915050565b7f45524337323155524953746f726167653a2055524920736574206f66206e6f6e60008201527f6578697374656e7420746f6b656e000000000000000000000000000000000000602082015250565b6000613a1b602e8361290d565b9150613a26826139bf565b604082019050919050565b60006020820190508181036000830152613a4a81613a0e565b9050919050565b600081519050919050565b600082825260208201905092915050565b6000613a7882613a51565b613a828185613a5c565b9350613a9281856020860161291e565b613a9b81612951565b840191505092915050565b6000608082019050613abb6000830187612a52565b613ac86020830186612a52565b613ad56040830185612ae8565b8181036060830152613ae78184613a6d565b905095945050505050565b600081519050613b0181612873565b92915050565b600060208284031215613b1d57613b1c61283d565b5b6000613b2b84828501613af2565b91505092915050565b7f4552433732313a206d696e7420746f20746865207a65726f2061646472657373600082015250565b6000613b6a60208361290d565b9150613b7582613b34565b602082019050919050565b60006020820190508181036000830152613b9981613b5d565b9050919050565b7f4552433732313a20746f6b656e20616c7265616479206d696e74656400000000600082015250565b6000613bd6601c8361290d565b9150613be182613ba0565b602082019050919050565b60006020820190508181036000830152613c0581613bc9565b9050919050565b7f4e487b7100000000000000000000000000000000000000000000000000000000600052603160045260246000fdfea2646970667358221220a1dde3e9f58bb66a4f82bcf6013d00da1f8152716f6fa2d772798a396a38a9ac64736f6c63430008090033",
  "linkReferences": {},
  "deployedLinkReferences": {}
}